{
  "contractName": "TokenTimelockFactory",
  "abi": [
    {
      "anonymous": false,
      "inputs": [
        {
          "indexed": false,
          "name": "wallet",
          "type": "address"
        },
        {
          "indexed": false,
          "name": "from",
          "type": "address"
        },
        {
          "indexed": false,
          "name": "to",
          "type": "address"
        },
        {
          "indexed": false,
          "name": "createDate",
          "type": "uint256"
        },
        {
          "indexed": false,
          "name": "unlockDate",
          "type": "uint256"
        }
      ],
      "name": "walletCreated",
      "type": "event"
    },
    {
      "constant": false,
      "inputs": [
        {
          "name": "tokenContract",
          "type": "address"
        },
        {
          "name": "beneficiary",
          "type": "address"
        },
        {
          "name": "releaseTime",
          "type": "uint256"
        }
      ],
      "name": "createTokenTimelock",
      "outputs": [
        {
          "name": "wallet",
          "type": "address"
        }
      ],
      "payable": false,
      "stateMutability": "nonpayable",
      "type": "function"
    }
  ],
  "bytecode": "0x608060405234801561001057600080fd5b50610544806100206000396000f3006080604052600436106100405763ffffffff7c0100000000000000000000000000000000000000000000000000000000600035041663c24dfa138114610045575b600080fd5b34801561005157600080fd5b5061007c73ffffffffffffffffffffffffffffffffffffffff600435811690602435166044356100a5565b6040805173ffffffffffffffffffffffffffffffffffffffff9092168252519081900360200190f35b6000838084846100b36101bf565b73ffffffffffffffffffffffffffffffffffffffff9384168152919092166020820152604080820192909252905190819003606001906000f0801580156100fe573d6000803e3d6000fd5b50600080546001810182559080527f290decd9548b62a8d60345a988386fc84ba6bc95484008f6362f93160ef3e56301805473ffffffffffffffffffffffffffffffffffffffff80841673ffffffffffffffffffffffffffffffffffffffff19909216821790925560408051918252336020830152918716818301524260608201526080810186905290519193507fd1286affd10a355a1c8d8c159688f24dd98629836ceae3b7b6e3a35a5dfb4d97919081900360a00190a1509392505050565b604051610349806101d0833901905600608060405234801561001057600080fd5b5060405160608061034983398101604090815281516020830151919092015142811161003b57600080fd5b60008054600160a060020a03948516600160a060020a03199182161790915560018054939094169216919091179091556002556102cc8061007d6000396000f3006080604052600436106100615763ffffffff7c010000000000000000000000000000000000000000000000000000000060003504166338af3eed811461006657806386d1a69f14610097578063b91d4001146100ae578063fc0c546a146100d5575b600080fd5b34801561007257600080fd5b5061007b6100ea565b60408051600160a060020a039092168252519081900360200190f35b3480156100a357600080fd5b506100ac6100f9565b005b3480156100ba57600080fd5b506100c36101d3565b60408051918252519081900360200190f35b3480156100e157600080fd5b5061007b6101d9565b600154600160a060020a031690565b60025460009042101561010b57600080fd5b60008054604080517f70a082310000000000000000000000000000000000000000000000000000000081523060048201529051600160a060020a03909216926370a08231926024808401936020939083900390910190829087803b15801561017257600080fd5b505af1158015610186573d6000803e3d6000fd5b505050506040513d602081101561019c57600080fd5b50519050600081116101ad57600080fd5b6001546000546101d091600160a060020a0391821691168363ffffffff6101e816565b50565b60025490565b600054600160a060020a031690565b82600160a060020a031663a9059cbb83836040518363ffffffff167c01000000000000000000000000000000000000000000000000000000000281526004018083600160a060020a0316600160a060020a0316815260200182815260200192505050602060405180830381600087803b15801561026457600080fd5b505af1158015610278573d6000803e3d6000fd5b505050506040513d602081101561028e57600080fd5b5051151561029b57600080fd5b5050505600a165627a7a7230582077ed263f015817872d9398635644e1c9e4af92194f2485453e75bb09f002508d0029a165627a7a72305820ad1b9b87123fc43432a3fb2a2c8bc68424ffe399765155d2b5d20232fbc427f30029",
  "source": "pragma solidity ^0.4.24;\n\nimport \"openzeppelin-solidity/contracts/token/ERC20/TokenTimeLock.sol\";\nimport \"./BeyondToken.sol\";\n\n/**\n * @title TokenTimelockFactory\n */\ncontract TokenTimelockFactory {\n\n    // Token holders\n    address[] private wallets;\n\n    // Event\n    event walletCreated(address wallet, address from, address to, uint256 createDate, uint256 unlockDate);\n\n    function createTokenTimelock(\n        address tokenContract, \n        address beneficiary, \n        uint256 releaseTime\n        ) \n        public \n        returns(address wallet)\n    {\n        \n        IERC20 token = IERC20(tokenContract);\n\n        // Create new tokentimelock\n        wallet = new TokenTimelock(token, beneficiary, releaseTime);\n\n        // Push into list\n        wallets.push(wallet);\n\n        // Emit event\n        emit walletCreated(address(wallet), msg.sender, beneficiary, now, releaseTime);\n\n        // Return\n        return address(wallet);\n    }\n}",
  "sourcePath": "/Volumes/Data/BlockChain/Project/BeyondToken/contracts/TokenTimelockFactory.sol",
  "compiler": {
    "name": "solc",
    "version": "0.4.24+commit.e67f0147.Emscripten.clang"
  },
  "schemaVersion": "2.0.1",
  "updatedAt": "2018-11-07T07:56:50.841Z"
}